:020000040800F2
:10000000C8050020D500000807080008D10700082F
:1000100000000000000000000000000000000000E0
:10002000000000000000000000000000910E000829
:10003000000000000000000059080008AD0E000894
:100040000501000805010008050100080501000878
:100050000501000805010008050100080501000868
:100060000501000805010008050100080501000858
:100070000501000805010008050100080501000848
:100080000D0F00080000000000000000050100083E
:100090000000000005010008050100080501000836
:1000A0000000000005010008050100089910000883
:1000B0000501000800000000ED050008050100082A
:1000C0000348854600F064F800480047DD12000848
:1000D000C80500200C4880F308880C480168090E08
:1000E0000B4A914205D10B480B4901600B480C4962
:1000F00001600C4880470C480047FEE7FEE7FEE73A
:10010000FEE7FEE7FEE70000C8050020040000004F
:100110001F00000018100240010000000000014014
:1001200000000000B10E0008C100000830B50B4609
:10013000014600202022012409E00D46D5409D42C1
:1001400005D31D469540491B254695404019154647
:10015000521E002DF1DC30BDD2B201E00270401C15
:10016000491EFBD270470022F6E710B513460A4637
:1001700004461946FFF7F0FF204610BD0321001D7D
:10018000401E037812021A43491EF9D510467047E3
:10019000064C0125064E05E0E36807CC2B430C3CDA
:1001A00098471034B442F7D3FFF78EFF5814000875
:1001B00078140008F8B5CF080E460546002409E07B
:1001C0000821284600F042FA0120083501F06CF8B9
:1001D000641CE4B2BC42F3D3700707D07107490F27
:1001E000284600F033FA012001F05EF80020F8BD47
:1001F00010B501214C06204600F048FB00212046A6
:1002000000F044FB10BD000070B50446817A012067
:1002100005462B4E8D40316801433160F069A8439B
:10022000F061207B002812D1F068A843F060E088DC
:10023000618800040843A17AC90089190864A0886C
:10024000218800040843A17AC90089194864207BE9
:10025000012814D1F0682843F0602046FFF78EFF94
:100260001021C841A17AC90089190864201DFFF72F
:1002700085FF1021C841A17AC90089194864E07A34
:100280000028706805D0284370602089002802D0BB
:1002900004E0A843F8E77069A84370612089012849
:1002A00002D1706928437061607B012802D1F06936
:1002B0002843F061306840084000306070BD0000A5
:1002C00000660040002A426901D00A4300E08A43E8
:1002D0004261704710B5036800220224A343036003
:1002E0000368012423430360314B00E0521C44683F
:1002F000E40701D19A42F9D14268D2073ED08C7905
:100300008022012C04683BD094430460CC794022C5
:10031000012C046836D0944304600C7A2022012C0E
:10032000046831D0944304604C7A1022012C046894
:100330002CD0944304608C7A0822012C046827D0C6
:1003400094430460CC7A0422012C046822D09443A4
:1003500004608A78CC789207240622430C7924041E
:1003600022434C79098824052243491E0A43C2616D
:10037000016849084900016000210EE0002010BD1D
:100380001443C2E71443C7E71443CCE71443D1E74F
:100390001443D6E71443DBE7491C4268D20701D077
:1003A0009942F9D14068C007E8D1012010BD000092
:1003B000FFFFFF00F1B501218AB0480400F04EFABA
:1003C0000121480600F056FA022669460E74002400
:1003D00003208C74C00203900125CD74032048745F
:1003E0000927FF0603A9384600F08AF904220B21E9
:1003F000384600F0BDF904220C21384600F0B8F967
:10040000194F3846FFF7F4FE69468C71CC7102949F
:100410000A988870CC70072008714E7108200880F7
:100420003846FFF757FF08A98C70CD700D71A020DA
:10043000694608834C838C83CC830C8408A94D7156
:1004400006A8FFF7E1FE012202213846FFF73AFF36
:100450001E20694608754E758D7505A800F0D4F903
:1004600000200BB0F0BD0000006400400B0130B56F
:100470001B18FF3381331C6B04252C4014721C6B3A
:1004800029D0E40854601C6B02252C4054725C6B2C
:100490002407240F94725C6B240AD4749C6BD4726E
:1004A0009C6B240A14739C6B240C54739C6B240E59
:1004B0009473DC6BD473DC6B240A1474DC6B240C33
:1004C0005474DB6B1B0E93742022002906D0016943
:1004D0001143016130BD640D1460D4E7C16811435C
:1004E000C16030BD30B50246936800205B0108D47E
:1004F0009068000101D5012003E09068C0002ED56E
:10050000022003019A18FF3281321368DB07DB0FE8
:1005100013600B7A002B24D014684D681C434B7A6F
:10052000ED002B431C4314608B7A1B071B0F8B724F
:1005300053681B091B01536053688C7A2343536033
:10054000CB68CC7A1B02234393600B69C97B1B02E7
:100550000B43D360116801231943116030BD04209F
:1005600030BD13684C7A23430C8864052343136021
:10057000DAE700000022002904D0012905D0022971
:1005800006D112E08268134801E0826812480240F6
:100590001249501A8A4218D00ADC002A17D0104893
:1005A000101811D0022810D10DE082680D48EEE736
:1005B000FF38FF38801E06D00B49401804D00121B7
:1005C0004904884201D10120704700207047022071
:1005D0007047000003000004000300080001000849
:1005E000FFFFFFFB000003100003FFF7F0B585B02D
:1005F0006A4600211148FFF739FF00206E46104976
:10060000104A0746B57A0CE03318DB7A0C8813558C
:100610000B885B1C0B800B88FA2B00D10F80401CD1
:10062000C0B28542F0D809208021C00600F0B0F8A1
:1006300005490120087005B0F0BD000000640040CD
:10064000180000205800002027000020F0B585B0D9
:100650000022502300936C46019222726272A172B2
:100660006B4604E0845C9D18521CEC7292B28A4284
:10067000F8D3124F19463846FFF734FF06460024D8
:100680000F4D01E0641CA4B231463846FFF772FFFB
:10069000002801D1AC42F5D309204021C00600F06A
:1006A00077F8084901200870AC4205D30020FFF715
:1006B00081FE012005B0F0BD0020FBE70064004092
:1006C000FF0F000028000020F8B507460025694606
:1006D0000D700A2000F0E8FD0124264669462046F8
:1006E00000F09CFB002802D03046A04005430A20C1
:1006F00000F0DAFD641CE4B2042CEFD93D60F8BDD3
:10070000F0B50022032501230C6893401C409C4255
:100710002AD10C79012C01D0022C12D18768540007
:100720002E46A640B74387604E79A640846826438C
:10073000866084889C43848084888B7993401C43A2
:100740008480066853002C469C40A64306600E79C0
:1007500007689E403E430660C668A643C660CC79E3
:100760009C40C3681C43C460521C102ACBD3F0BD0C
:100770004B07DB0E9A40C90810B589000818016ABA
:100780000F249C40A1430162016A1143016210BD24
:10079000018570478161704770B505460A4800239E
:1007A0000A4C0EE0EA5C50400022C60702D0400826
:1007B000604000E04008521CD2B2082AF5D35B1C0E
:1007C000DBB28B42EED370BDFFFF000001A0000042
:1007D000FEE71CB50121480400F040F8F02000902D
:1007E00001206A4610710021917103215171092481
:1007F000D071E40669462046FFF782FFF0212046CB
:10080000FFF7C8FF1CBD704730B58278012401781E
:10081000002A15D08B080E4A9B009A181368890786
:10082000C90EFF258D40AB434578AD072D0E8D4099
:100830001D4315600078C006C00E8440054804E0E2
:10084000C806C00E844003488030046030BD0000FC
:1008500000E400E000E100E070470000044A0029E5
:10086000516901D0014300E08143516170470000AC
:1008700000100240044A0029D16901D0014300E080
:100880008143D1617047000000100240044A0029F2
:10089000116901D0014300E08143116170470000FC
:1008A00000100240044A0029916901D0014300E090
:1008B00081439161704700000010024070B5002430
:1008C00000F034F8012000F047F905252D0300E081
:1008D000641C012000F014F9002801D1AC42F7D1CA
:1008E000012000F00DF900281CD00F4911200860EC
:1008F000002000F027F9002000F03CF90521C90490
:10090000002000F04FF9012000F03EF9192000F01E
:10091000F7F80028FAD0022000F052F900F00AF9A6
:100920000828FBD170BD0000002002401248016879
:100930000122114301604168104A11404160016881
:100940000F4A114001600168012292049143016045
:1009500041683F22120491434160C16A09090901BB
:10096000C162016B074A11400163416B49084900AC
:100970004163002181607047001002400CB8FF08FD
:10098000FFFFF6FEACFEF0FFF8B5564E0446706869
:1009900000210C22544D104005D0042803D0082813
:1009A00003D00C281AD025601AE071687068032201
:1009B0008902D2030F0F1040BF1C00280AD0F06A32
:1009C0000107090F2846491CFFF7B0FB7843014691
:1009D000216005E0454839464143F9E74448206035
:1009E0007068444F0006000F3B5C20680246DA4006
:1009F000626073685B055B0FFB5CDA40A260336B7F
:100A0000DB0501D43C4B05E073685B0401D453085B
:100A100000E09308E360336B5F06384B03D4374F35
:100A20001237276100E02361376BFF0601D465614F
:100A300000E06061376BBF070ED0376BBF07BF0F99
:100A4000012F0BD0376BBF07BF0F022F08D0376BBA
:100A5000FF43BF0706D006E0A26104E0A06102E008
:100A6000A36100E0A561376BBF03BF0F0FD0376BE9
:100A7000BF03BF0F012F0CD0376BBF03BF0F022F77
:100A800009D0376BBF03BF0F032F06D006E0E2612A
:100A900004E0E06102E0E36100E0E561376B3F0301
:100AA000BF0F0FD0326B1203920F012A0CD0306BA4
:100AB0000003800F022809D0306B0003800F032849
:100AC00006D006E0226204E0206202E0236200E039
:100AD0002562306B000602D405486062F8BD616291
:100AE000F8BD00000010024000127A0000093D002D
:100AF000006CDC0208000020809FD5000080000010
:100B0000034600200A4A59090CD001290CD00229B9
:100B10000CD0516BDA06D20E012393400B4200D069
:100B2000012070471168F5E7116AF3E7516AF1E7B0
:100B300000100240024840680C2108407047000045
:100B400000100240034A5168F02399430143516069
:100B5000704700000010024005490028086802D0D4
:100B60000122104301E04008400008607047000087
:100B700000100240034A516807231B0299430143B6
:100B800051607047001002400122054912060028FA
:100B9000086801D0104300E09043086070470000EF
:100BA0000010024010B5054A53687B24E403A343B8
:100BB0005360536808430343536010BD0010024064
:100BC000034A516889088900014351607047000059
:100BD00000100240F1B501218AB04804FFF73EFE43
:100BE00001218803FFF75EFE09210122C806FFF7F5
:100BF000BFFD092001220A21C006FFF7B9FD03202D
:100C000040020090022668460671032747710024BF
:100C100084710125C57109206946C006FFF770FD82
:100C2000280200906846057147718471C5710920DA
:100C30006946C006FFF764FD0A98039028030490F4
:100C400080100594089406900C20144C079003A97A
:100C5000204600F089FA0121204600F043FA4021A5
:100C6000204600F03DFA01220D49204600F067FAC7
:100C70001B21684601724672857202A8FFF7C4FD07
:100C80000920A115C006FFF783FD0649402208464A
:100C90000C3800F051FB0BB0F0BD000000380140F3
:100CA000050105006001002030B50B4A1378002BC8
:100CB00011D00023084C13701A46A41C03E0A55C55
:100CC0008554521CD2B28A42F9D300202354401CCE
:100CD000C0B20728FAD330BD1C000020F8B50D467D
:100CE0000646FF2109200131C006FFF753FD0F48DA
:100CF0000F4F0189C1804021384600F0F1F90024EE
:100D00000BE0315D384600F087FA4021384600F0AC
:100D1000F3F90028F9D0641CE4B2AC42F1D3FF210E
:100D200009200131C006FFF733FDF8BD5401002052
:100D300000380140F8B50F46002408213846FFF777
:100D400012FA0F4D01202E4668700836C0B20121FC
:100D50006A688140114207D06100641C3054C9198F
:100D6000E4B200F00FF803E0EE21641C3154E4B269
:100D70006878401CC0B268700428E7D9F8BD00004C
:100D80003C000020F8B505460E46072000F08CFA1E
:100D9000204C2020257060700020A0700321204688
:100DA000FFF7FAFCE070000A207105212046FFF7EA
:100DB00095FF274607200D3F3870322000F074FA67
:100DC000E800411B14480C1839782046FFF76CFFE7
:100DD00000223D461435A05CA854521CD2B2072A0A
:100DE000F9D30C480521C01DFFF7D6FC80B26A7903
:100DF000C1B291420CD1A979000A884208D10548B4
:100E0000C01D0179C2780802104330800120F8BD6E
:100E10000020F8BD49000020AB01002070B5064657
:100E20000D46072000F040FA184C04202670607030
:100E30000020A07003212046FFF7AEFCE070000AFE
:100E4000207105212046FFF749FF06200D3C207048
:100E5000322000F029FA204621781430FFF724FFD1
:100E6000204604211430FFF797FC2146143180B24C
:100E70000B79C2B29A4207D14A79000A904203D153
:100E8000C8782870012070BD002070BD4900002086
:100E900070470000042204490428086902D09043E6
:100EA000086170471043FBE700E000E07047000076
:100EB000134801680122114301604168114A114041
:100EC00041600168104A11400160016801229204EA
:100ED0009143016041683F22120491434160C16A1D
:100EE00009090901C162016BFF2254329143016378
:100EF000416B49084900416300218160704700004F
:100F0000001002400CB8FF08FFFFF6FE70B5174D49
:100F10000121284600F071F8012822D1144C607894
:100F2000401CC1B261700F2903D100206070012004
:100F30002070A0780926F606002803D0A078401E6D
:100F4000A07003E080213046FFF724FCE078002801
:100F500003D0E078401EE07003E040213046FFF708
:100F600019FC0121284600F03BF870BD0004004048
:100F70002500002030B58FB001A8FFF705FD154909
:100F80000398FFF7D3F8044601210220FFF772FC13
:100F900011480C906946641E8C850024CC850F4D49
:100FA0008C860BA9284600F03DF801221146284600
:100FB00000F02FF80121284600F015F810206946AE
:100FC00008704C70012088706846FFF71DFC0FB058
:100FD00030BD000010270000E703000000040040BF
:100FE000C943018270470029018802D001221143C0
:100FF00001E049084900018070470246138A002039
:1010000092890B400A40002B02D0002A00D0012018
:101010007047002A828901D00A4300E08A43828116
:101020007047000010B50288144B984206D0012486
:10103000A407A04202D0124CA04203D17024A243C4
:101040004C8822430F4CA04203D00F4C22400C8905
:10105000224302804A68C2620A880285984208D008
:101060000A4A904205D00A4A904202D0094A904268
:1010700001D1897A01860121818210BD002C0140B5
:101080000004004000100040FFFC00000040014050
:10109000004401400048014010B50E4C0C49204668
:1010A00000F031F8002811D0204600F0B1F80A4BCA
:1010B0009A1E51785854491CC8B208495070097892
:1010C000884203D3002050700120107010BD000032
:1010D00005010500003801401E0000203C000020F2
:1010E000016270470029016802D00122114301E02A
:1010F00049084900016070470246D26900200A424F
:1011000000D00120704730B50A04130E01252A468D
:1011100000248A40012B0ED0022B0ED08368090CCC
:101120001340C0698D402840002B02D0002800D019
:101130000124204630BD0368F1E74368EFE710B5AE
:101140000B041C0E01238B40022C02D0032C02D076
:1011500002E0001D00E008300168002A01D01943B8
:1011600000E09943016010BD30B5044600688BB0C3
:101170000D46400840002060606803210903884351
:10118000A9680143616020681C49EA6808406968F1
:1011900011432A69024311432160A0680321090217
:1011A000884369690143A1606846FFF7EDFB144875
:1011B000844201D106980AE01248844201D107987E
:1011C00005E01148844201D1089800E002982168A6
:1011D0000904296800D54000FEF7A8FF2A685208D4
:1011E0008A4200D8401C2168090404D50107074A37
:1011F000490F10400843A0810BB030BDF3E9FFFF59
:10120000003801400044004000480040F0FF00006A
:10121000808CC005C00D7047C905C90D0185704798
:1012200002E008C8121F08C1002AFAD170477047AF
:10123000002001E001C1121F002AFBD170470A887B
:101240001346424010015040C0B21A0A03025A40ED
:10125000C3005A40000942400A80704738B505462D
:101260000C460020C0436946088004E0287869469F
:101270006D1CFFF7E4FF2046641EA4B20028F5D1E0
:101280006846008838BD000010B504460420C043FD
:10129000FFF700FE0349E0087D220870D2005043AA
:1012A000488010BD2A0000200A49498848430A495D
:1012B000486100238B6108690122104308610869B5
:1012C000C20701D0C003FAD5086940084000086190
:1012D0008B6170472A00002000E000E0FFF7E8FD86
:1012E000FFF7ECFA4B20C001FFF774FC3020FFF74A
:1012F000CBFFFFF73FFE0020FFF75CF8FFF769FA2E
:101300000948FFF7D1FF0948FFF7DEF9074E084CFF
:10131000002520780028FCD0257006493068FFF7AA
:1013200009FD00F03FF8F4E7983A00004000002083
:101330002500002000000020016082800021018142
:10134000C1807047F8B50446EB2020700120607022
:101350000025A570E5701E206071607B104E315C29
:10136000A171315C491CCAB232541046677BFF211F
:10137000FEF7DCFEF15500202118401CC0B2CD71F3
:101380000328F9D32F212046FFF768FF01462046A6
:1013900023300173090A4173BE2020346074F8BD04
:1013A000A001002030B58DB001206A4610710021E7
:1013B0002648117403789372C088D072000A1073A3
:1013C000052050739173D173204A0120204CFD23D6
:1013D0000832255CEE2D00D11354401CC0B2052804
:1013E000F7D350786B46587460781A4D98742888F3
:1013F000D874000A187590785875A0789875688820
:10140000D875000A1876D0785876E0789876A8884B
:10141000D876000A18771079587720799877E88875
:10142000D877000A08AB187010206A461318401CC1
:10143000C0B259741E28F9D31046FFF783FF32213A
:101440006846FEF7B7FE0DB030BD00002E0000204C
:101450004400002000000020781400080000002054
:101460005800000020120008D01400085800002086
:1014700070050000301200080000000000000000AD
:10148000000000000102030401020304060708092A
:10149000000000000000000000000000000000004C
:1014A0000000000000000000000000000000FEFE40
:1014B000FEFEFE000700000000000000000000002B
:1014C000000000000000000000000000000000001C
:04000005080000C12E
:00000001FF
